{
	"data": {
		"bytecode": {
			"linkReferences": {},
			"object": "608060405234801561000f575f80fd5b50604051610fb7380380610fb78339818101604052810190610031919061029a565b6100435f801b826100dd60201b60201c565b506100747f9f2df0fed2c77648de5860a4cc508cd0818c85b8b8a1ab4ceeef8d981c8956a6826100dd60201b60201c565b506100a57f3c11d16cbaffd01df69ce1c404f6340ee057498f5f00246190ea54220576a848826100dd60201b60201c565b506100d67f97667070c54ef182b0f5858b034beac1b6f3089aa2d3188bb1e8929f4fa9b929826100dd60201b60201c565b50506102c5565b5f6100ee83836101d260201b60201c565b6101c85760015f808581526020019081526020015f205f015f8473ffffffffffffffffffffffffffffffffffffffff1673ffffffffffffffffffffffffffffffffffffffff1681526020019081526020015f205f6101000a81548160ff02191690831515021790555061016561023560201b60201c565b73ffffffffffffffffffffffffffffffffffffffff168273ffffffffffffffffffffffffffffffffffffffff16847f2f8788117e7eff1d82e926ec794901d17c78024a50270940304540a733656f0d60405160405180910390a4600190506101cc565b5f90505b92915050565b5f805f8481526020019081526020015f205f015f8373ffffffffffffffffffffffffffffffffffffffff1673ffffffffffffffffffffffffffffffffffffffff1681526020019081526020015f205f9054906101000a900460ff16905092915050565b5f33905090565b5f80fd5b5f73ffffffffffffffffffffffffffffffffffffffff82169050919050565b5f61026982610240565b9050919050565b6102798161025f565b8114610283575f80fd5b50565b5f8151905061029481610270565b92915050565b5f602082840312156102af576102ae61023c565b5b5f6102bc84828501610286565b91505092915050565b610ce5806102d25f395ff3fe608060405234801561000f575f80fd5b506004361061011f575f3560e01c80636d70f7ae116100ab578063d53913931161006f578063d539139314610327578063d547741f14610345578063e348da1314610361578063f5b541a61461037d578063fad8b32a1461039b5761011f565b80636d70f7ae1461025d57806391d148541461028d578063a217fddf146102bd578063aa271e1a146102db578063cfbd48851461030b5761011f565b8063261707fa116100f2578063261707fa146101bb578063282c51f3146101d75780632f2ff15d146101f557806336568abe146102115780634334614a1461022d5761011f565b806301ffc9a7146101235780630900cc331461015357806310511f961461016f578063248a9ca31461018b575b5f80fd5b61013d60048036038101906101389190610ad2565b6103b7565b60405161014a9190610b17565b60405180910390f35b61016d60048036038101906101689190610b8a565b610430565b005b61018960048036038101906101849190610b8a565b61046a565b005b6101a560048036038101906101a09190610be8565b6104a4565b6040516101b29190610c22565b60405180910390f35b6101d560048036038101906101d09190610b8a565b6104c0565b005b6101df6104fa565b6040516101ec9190610c22565b60405180910390f35b61020f600480360381019061020a9190610c3b565b61051e565b005b61022b60048036038101906102269190610c3b565b610540565b005b61024760048036038101906102429190610b8a565b6105bb565b6040516102549190610b17565b60405180910390f35b61027760048036038101906102729190610b8a565b6105ed565b6040516102849190610b17565b60405180910390f35b6102a760048036038101906102a29190610c3b565b61061f565b6040516102b49190610b17565b60405180910390f35b6102c5610682565b6040516102d29190610c22565b60405180910390f35b6102f560048036038101906102f09190610b8a565b610688565b6040516103029190610b17565b60405180910390f35b61032560048036038101906103209190610b8a565b6106ba565b005b61032f6106f4565b60405161033c9190610c22565b60405180910390f35b61035f600480360381019061035a9190610c3b565b610718565b005b61037b60048036038101906103769190610b8a565b61073a565b005b610385610774565b6040516103929190610c22565b60405180910390f35b6103b560048036038101906103b09190610b8a565b610798565b005b5f7f7965db0b000000000000000000000000000000000000000000000000000000007bffffffffffffffffffffffffffffffffffffffffffffffffffffffff1916827bffffffffffffffffffffffffffffffffffffffffffffffffffffffff191614806104295750610428826107d2565b5b9050919050565b5f801b61043c8161083b565b6104667f3c11d16cbaffd01df69ce1c404f6340ee057498f5f00246190ea54220576a84883610718565b5050565b5f801b6104768161083b565b6104a07f3c11d16cbaffd01df69ce1c404f6340ee057498f5f00246190ea54220576a8488361051e565b5050565b5f805f8381526020019081526020015f20600101549050919050565b5f801b6104cc8161083b565b6104f67f9f2df0fed2c77648de5860a4cc508cd0818c85b8b8a1ab4ceeef8d981c8956a68361051e565b5050565b7f3c11d16cbaffd01df69ce1c404f6340ee057498f5f00246190ea54220576a84881565b610527826104a4565b6105308161083b565b61053a838361084f565b50505050565b610548610938565b73ffffffffffffffffffffffffffffffffffffffff168173ffffffffffffffffffffffffffffffffffffffff16146105ac576040517f6697b23200000000000000000000000000000000000000000000000000000000815260040160405180910390fd5b6105b6828261093f565b505050565b5f6105e67f3c11d16cbaffd01df69ce1c404f6340ee057498f5f00246190ea54220576a8488361061f565b9050919050565b5f6106187f97667070c54ef182b0f5858b034beac1b6f3089aa2d3188bb1e8929f4fa9b9298361061f565b9050919050565b5f805f8481526020019081526020015f205f015f8373ffffffffffffffffffffffffffffffffffffffff1673ffffffffffffffffffffffffffffffffffffffff1681526020019081526020015f205f9054906101000a900460ff16905092915050565b5f801b81565b5f6106b37f9f2df0fed2c77648de5860a4cc508cd0818c85b8b8a1ab4ceeef8d981c8956a68361061f565b9050919050565b5f801b6106c68161083b565b6106f07f9f2df0fed2c77648de5860a4cc508cd0818c85b8b8a1ab4ceeef8d981c8956a683610718565b5050565b7f9f2df0fed2c77648de5860a4cc508cd0818c85b8b8a1ab4ceeef8d981c8956a681565b610721826104a4565b61072a8161083b565b610734838361093f565b50505050565b5f801b6107468161083b565b6107707f97667070c54ef182b0f5858b034beac1b6f3089aa2d3188bb1e8929f4fa9b9298361051e565b5050565b7f97667070c54ef182b0f5858b034beac1b6f3089aa2d3188bb1e8929f4fa9b92981565b5f801b6107a48161083b565b6107ce7f97667070c54ef182b0f5858b034beac1b6f3089aa2d3188bb1e8929f4fa9b92983610718565b5050565b5f7f01ffc9a7000000000000000000000000000000000000000000000000000000007bffffffffffffffffffffffffffffffffffffffffffffffffffffffff1916827bffffffffffffffffffffffffffffffffffffffffffffffffffffffff1916149050919050565b61084c81610847610938565b610a28565b50565b5f61085a838361061f565b61092e5760015f808581526020019081526020015f205f015f8473ffffffffffffffffffffffffffffffffffffffff1673ffffffffffffffffffffffffffffffffffffffff1681526020019081526020015f205f6101000a81548160ff0219169083151502179055506108cb610938565b73ffffffffffffffffffffffffffffffffffffffff168273ffffffffffffffffffffffffffffffffffffffff16847f2f8788117e7eff1d82e926ec794901d17c78024a50270940304540a733656f0d60405160405180910390a460019050610932565b5f90505b92915050565b5f33905090565b5f61094a838361061f565b15610a1e575f805f8581526020019081526020015f205f015f8473ffffffffffffffffffffffffffffffffffffffff1673ffffffffffffffffffffffffffffffffffffffff1681526020019081526020015f205f6101000a81548160ff0219169083151502179055506109bb610938565b73ffffffffffffffffffffffffffffffffffffffff168273ffffffffffffffffffffffffffffffffffffffff16847ff6391f5c32d9c69d2a47ea670b442974b53935d1edc7fd64eb21e047a839171b60405160405180910390a460019050610a22565b5f90505b92915050565b610a32828261061f565b610a755780826040517fe2517d3f000000000000000000000000000000000000000000000000000000008152600401610a6c929190610c88565b60405180910390fd5b5050565b5f80fd5b5f7fffffffff0000000000000000000000000000000000000000000000000000000082169050919050565b610ab181610a7d565b8114610abb575f80fd5b50565b5f81359050610acc81610aa8565b92915050565b5f60208284031215610ae757610ae6610a79565b5b5f610af484828501610abe565b91505092915050565b5f8115159050919050565b610b1181610afd565b82525050565b5f602082019050610b2a5f830184610b08565b92915050565b5f73ffffffffffffffffffffffffffffffffffffffff82169050919050565b5f610b5982610b30565b9050919050565b610b6981610b4f565b8114610b73575f80fd5b50565b5f81359050610b8481610b60565b92915050565b5f60208284031215610b9f57610b9e610a79565b5b5f610bac84828501610b76565b91505092915050565b5f819050919050565b610bc781610bb5565b8114610bd1575f80fd5b50565b5f81359050610be281610bbe565b92915050565b5f60208284031215610bfd57610bfc610a79565b5b5f610c0a84828501610bd4565b91505092915050565b610c1c81610bb5565b82525050565b5f602082019050610c355f830184610c13565b92915050565b5f8060408385031215610c5157610c50610a79565b5b5f610c5e85828601610bd4565b9250506020610c6f85828601610b76565b9150509250929050565b610c8281610b4f565b82525050565b5f604082019050610c9b5f830185610c79565b610ca86020830184610c13565b939250505056fea2646970667358221220aaad3f4df7667f341036437386d4e143c7fc8a68e48ca82c07bdb48a7ac56fe764736f6c63430008190033",
			"opcodes": "PUSH1 0x80 PUSH1 0x40 MSTORE CALLVALUE DUP1 ISZERO PUSH2 0xF JUMPI PUSH0 DUP1 REVERT JUMPDEST POP PUSH1 0x40 MLOAD PUSH2 0xFB7 CODESIZE SUB DUP1 PUSH2 0xFB7 DUP4 CODECOPY DUP2 DUP2 ADD PUSH1 0x40 MSTORE DUP2 ADD SWAP1 PUSH2 0x31 SWAP2 SWAP1 PUSH2 0x29A JUMP JUMPDEST PUSH2 0x43 PUSH0 DUP1 SHL DUP3 PUSH2 0xDD PUSH1 0x20 SHL PUSH1 0x20 SHR JUMP JUMPDEST POP PUSH2 0x74 PUSH32 0x9F2DF0FED2C77648DE5860A4CC508CD0818C85B8B8A1AB4CEEEF8D981C8956A6 DUP3 PUSH2 0xDD PUSH1 0x20 SHL PUSH1 0x20 SHR JUMP JUMPDEST POP PUSH2 0xA5 PUSH32 0x3C11D16CBAFFD01DF69CE1C404F6340EE057498F5F00246190EA54220576A848 DUP3 PUSH2 0xDD PUSH1 0x20 SHL PUSH1 0x20 SHR JUMP JUMPDEST POP PUSH2 0xD6 PUSH32 0x97667070C54EF182B0F5858B034BEAC1B6F3089AA2D3188BB1E8929F4FA9B929 DUP3 PUSH2 0xDD PUSH1 0x20 SHL PUSH1 0x20 SHR JUMP JUMPDEST POP POP PUSH2 0x2C5 JUMP JUMPDEST PUSH0 PUSH2 0xEE DUP4 DUP4 PUSH2 0x1D2 PUSH1 0x20 SHL PUSH1 0x20 SHR JUMP JUMPDEST PUSH2 0x1C8 JUMPI PUSH1 0x1 PUSH0 DUP1 DUP6 DUP2 MSTORE PUSH1 0x20 ADD SWAP1 DUP2 MSTORE PUSH1 0x20 ADD PUSH0 KECCAK256 PUSH0 ADD PUSH0 DUP5 PUSH20 0xFFFFFFFFFFFFFFFFFFFFFFFFFFFFFFFFFFFFFFFF AND PUSH20 0xFFFFFFFFFFFFFFFFFFFFFFFFFFFFFFFFFFFFFFFF AND DUP2 MSTORE PUSH1 0x20 ADD SWAP1 DUP2 MSTORE PUSH1 0x20 ADD PUSH0 KECCAK256 PUSH0 PUSH2 0x100 EXP DUP2 SLOAD DUP2 PUSH1 0xFF MUL NOT AND SWAP1 DUP4 ISZERO ISZERO MUL OR SWAP1 SSTORE POP PUSH2 0x165 PUSH2 0x235 PUSH1 0x20 SHL PUSH1 0x20 SHR JUMP JUMPDEST PUSH20 0xFFFFFFFFFFFFFFFFFFFFFFFFFFFFFFFFFFFFFFFF AND DUP3 PUSH20 0xFFFFFFFFFFFFFFFFFFFFFFFFFFFFFFFFFFFFFFFF AND DUP5 PUSH32 0x2F8788117E7EFF1D82E926EC794901D17C78024A50270940304540A733656F0D PUSH1 0x40 MLOAD PUSH1 0x40 MLOAD DUP1 SWAP2 SUB SWAP1 LOG4 PUSH1 0x1 SWAP1 POP PUSH2 0x1CC JUMP JUMPDEST PUSH0 SWAP1 POP JUMPDEST SWAP3 SWAP2 POP POP JUMP JUMPDEST PUSH0 DUP1 PUSH0 DUP5 DUP2 MSTORE PUSH1 0x20 ADD SWAP1 DUP2 MSTORE PUSH1 0x20 ADD PUSH0 KECCAK256 PUSH0 ADD PUSH0 DUP4 PUSH20 0xFFFFFFFFFFFFFFFFFFFFFFFFFFFFFFFFFFFFFFFF AND PUSH20 0xFFFFFFFFFFFFFFFFFFFFFFFFFFFFFFFFFFFFFFFF AND DUP2 MSTORE PUSH1 0x20 ADD SWAP1 DUP2 MSTORE PUSH1 0x20 ADD PUSH0 KECCAK256 PUSH0 SWAP1 SLOAD SWAP1 PUSH2 0x100 EXP SWAP1 DIV PUSH1 0xFF AND SWAP1 POP SWAP3 SWAP2 POP POP JUMP JUMPDEST PUSH0 CALLER SWAP1 POP SWAP1 JUMP JUMPDEST PUSH0 DUP1 REVERT JUMPDEST PUSH0 PUSH20 0xFFFFFFFFFFFFFFFFFFFFFFFFFFFFFFFFFFFFFFFF DUP3 AND SWAP1 POP SWAP2 SWAP1 POP JUMP JUMPDEST PUSH0 PUSH2 0x269 DUP3 PUSH2 0x240 JUMP JUMPDEST SWAP1 POP SWAP2 SWAP1 POP JUMP JUMPDEST PUSH2 0x279 DUP2 PUSH2 0x25F JUMP JUMPDEST DUP2 EQ PUSH2 0x283 JUMPI PUSH0 DUP1 REVERT JUMPDEST POP JUMP JUMPDEST PUSH0 DUP2 MLOAD SWAP1 POP PUSH2 0x294 DUP2 PUSH2 0x270 JUMP JUMPDEST SWAP3 SWAP2 POP POP JUMP JUMPDEST PUSH0 PUSH1 0x20 DUP3 DUP5 SUB SLT ISZERO PUSH2 0x2AF JUMPI PUSH2 0x2AE PUSH2 0x23C JUMP JUMPDEST JUMPDEST PUSH0 PUSH2 0x2BC DUP5 DUP3 DUP6 ADD PUSH2 0x286 JUMP JUMPDEST SWAP2 POP POP SWAP3 SWAP2 POP POP JUMP JUMPDEST PUSH2 0xCE5 DUP1 PUSH2 0x2D2 PUSH0 CODECOPY PUSH0 RETURN INVALID PUSH1 0x80 PUSH1 0x40 MSTORE CALLVALUE DUP1 ISZERO PUSH2 0xF JUMPI PUSH0 DUP1 REVERT JUMPDEST POP PUSH1 0x4 CALLDATASIZE LT PUSH2 0x11F JUMPI PUSH0 CALLDATALOAD PUSH1 0xE0 SHR DUP1 PUSH4 0x6D70F7AE GT PUSH2 0xAB JUMPI DUP1 PUSH4 0xD5391393 GT PUSH2 0x6F JUMPI DUP1 PUSH4 0xD5391393 EQ PUSH2 0x327 JUMPI DUP1 PUSH4 0xD547741F EQ PUSH2 0x345 JUMPI DUP1 PUSH4 0xE348DA13 EQ PUSH2 0x361 JUMPI DUP1 PUSH4 0xF5B541A6 EQ PUSH2 0x37D JUMPI DUP1 PUSH4 0xFAD8B32A EQ PUSH2 0x39B JUMPI PUSH2 0x11F JUMP JUMPDEST DUP1 PUSH4 0x6D70F7AE EQ PUSH2 0x25D JUMPI DUP1 PUSH4 0x91D14854 EQ PUSH2 0x28D JUMPI DUP1 PUSH4 0xA217FDDF EQ PUSH2 0x2BD JUMPI DUP1 PUSH4 0xAA271E1A EQ PUSH2 0x2DB JUMPI DUP1 PUSH4 0xCFBD4885 EQ PUSH2 0x30B JUMPI PUSH2 0x11F JUMP JUMPDEST DUP1 PUSH4 0x261707FA GT PUSH2 0xF2 JUMPI DUP1 PUSH4 0x261707FA EQ PUSH2 0x1BB JUMPI DUP1 PUSH4 0x282C51F3 EQ PUSH2 0x1D7 JUMPI DUP1 PUSH4 0x2F2FF15D EQ PUSH2 0x1F5 JUMPI DUP1 PUSH4 0x36568ABE EQ PUSH2 0x211 JUMPI DUP1 PUSH4 0x4334614A EQ PUSH2 0x22D JUMPI PUSH2 0x11F JUMP JUMPDEST DUP1 PUSH4 0x1FFC9A7 EQ PUSH2 0x123 JUMPI DUP1 PUSH4 0x900CC33 EQ PUSH2 0x153 JUMPI DUP1 PUSH4 0x10511F96 EQ PUSH2 0x16F JUMPI DUP1 PUSH4 0x248A9CA3 EQ PUSH2 0x18B JUMPI JUMPDEST PUSH0 DUP1 REVERT JUMPDEST PUSH2 0x13D PUSH1 0x4 DUP1 CALLDATASIZE SUB DUP2 ADD SWAP1 PUSH2 0x138 SWAP2 SWAP1 PUSH2 0xAD2 JUMP JUMPDEST PUSH2 0x3B7 JUMP JUMPDEST PUSH1 0x40 MLOAD PUSH2 0x14A SWAP2 SWAP1 PUSH2 0xB17 JUMP JUMPDEST PUSH1 0x40 MLOAD DUP1 SWAP2 SUB SWAP1 RETURN JUMPDEST PUSH2 0x16D PUSH1 0x4 DUP1 CALLDATASIZE SUB DUP2 ADD SWAP1 PUSH2 0x168 SWAP2 SWAP1 PUSH2 0xB8A JUMP JUMPDEST PUSH2 0x430 JUMP JUMPDEST STOP JUMPDEST PUSH2 0x189 PUSH1 0x4 DUP1 CALLDATASIZE SUB DUP2 ADD SWAP1 PUSH2 0x184 SWAP2 SWAP1 PUSH2 0xB8A JUMP JUMPDEST PUSH2 0x46A JUMP JUMPDEST STOP JUMPDEST PUSH2 0x1A5 PUSH1 0x4 DUP1 CALLDATASIZE SUB DUP2 ADD SWAP1 PUSH2 0x1A0 SWAP2 SWAP1 PUSH2 0xBE8 JUMP JUMPDEST PUSH2 0x4A4 JUMP JUMPDEST PUSH1 0x40 MLOAD PUSH2 0x1B2 SWAP2 SWAP1 PUSH2 0xC22 JUMP JUMPDEST PUSH1 0x40 MLOAD DUP1 SWAP2 SUB SWAP1 RETURN JUMPDEST PUSH2 0x1D5 PUSH1 0x4 DUP1 CALLDATASIZE SUB DUP2 ADD SWAP1 PUSH2 0x1D0 SWAP2 SWAP1 PUSH2 0xB8A JUMP JUMPDEST PUSH2 0x4C0 JUMP JUMPDEST STOP JUMPDEST PUSH2 0x1DF PUSH2 0x4FA JUMP JUMPDEST PUSH1 0x40 MLOAD PUSH2 0x1EC SWAP2 SWAP1 PUSH2 0xC22 JUMP JUMPDEST PUSH1 0x40 MLOAD DUP1 SWAP2 SUB SWAP1 RETURN JUMPDEST PUSH2 0x20F PUSH1 0x4 DUP1 CALLDATASIZE SUB DUP2 ADD SWAP1 PUSH2 0x20A SWAP2 SWAP1 PUSH2 0xC3B JUMP JUMPDEST PUSH2 0x51E JUMP JUMPDEST STOP JUMPDEST PUSH2 0x22B PUSH1 0x4 DUP1 CALLDATASIZE SUB DUP2 ADD SWAP1 PUSH2 0x226 SWAP2 SWAP1 PUSH2 0xC3B JUMP JUMPDEST PUSH2 0x540 JUMP JUMPDEST STOP JUMPDEST PUSH2 0x247 PUSH1 0x4 DUP1 CALLDATASIZE SUB DUP2 ADD SWAP1 PUSH2 0x242 SWAP2 SWAP1 PUSH2 0xB8A JUMP JUMPDEST PUSH2 0x5BB JUMP JUMPDEST PUSH1 0x40 MLOAD PUSH2 0x254 SWAP2 SWAP1 PUSH2 0xB17 JUMP JUMPDEST PUSH1 0x40 MLOAD DUP1 SWAP2 SUB SWAP1 RETURN JUMPDEST PUSH2 0x277 PUSH1 0x4 DUP1 CALLDATASIZE SUB DUP2 ADD SWAP1 PUSH2 0x272 SWAP2 SWAP1 PUSH2 0xB8A JUMP JUMPDEST PUSH2 0x5ED JUMP JUMPDEST PUSH1 0x40 MLOAD PUSH2 0x284 SWAP2 SWAP1 PUSH2 0xB17 JUMP JUMPDEST PUSH1 0x40 MLOAD DUP1 SWAP2 SUB SWAP1 RETURN JUMPDEST PUSH2 0x2A7 PUSH1 0x4 DUP1 CALLDATASIZE SUB DUP2 ADD SWAP1 PUSH2 0x2A2 SWAP2 SWAP1 PUSH2 0xC3B JUMP JUMPDEST PUSH2 0x61F JUMP JUMPDEST PUSH1 0x40 MLOAD PUSH2 0x2B4 SWAP2 SWAP1 PUSH2 0xB17 JUMP JUMPDEST PUSH1 0x40 MLOAD DUP1 SWAP2 SUB SWAP1 RETURN JUMPDEST PUSH2 0x2C5 PUSH2 0x682 JUMP JUMPDEST PUSH1 0x40 MLOAD PUSH2 0x2D2 SWAP2 SWAP1 PUSH2 0xC22 JUMP JUMPDEST PUSH1 0x40 MLOAD DUP1 SWAP2 SUB SWAP1 RETURN JUMPDEST PUSH2 0x2F5 PUSH1 0x4 DUP1 CALLDATASIZE SUB DUP2 ADD SWAP1 PUSH2 0x2F0 SWAP2 SWAP1 PUSH2 0xB8A JUMP JUMPDEST PUSH2 0x688 JUMP JUMPDEST PUSH1 0x40 MLOAD PUSH2 0x302 SWAP2 SWAP1 PUSH2 0xB17 JUMP JUMPDEST PUSH1 0x40 MLOAD DUP1 SWAP2 SUB SWAP1 RETURN JUMPDEST PUSH2 0x325 PUSH1 0x4 DUP1 CALLDATASIZE SUB DUP2 ADD SWAP1 PUSH2 0x320 SWAP2 SWAP1 PUSH2 0xB8A JUMP JUMPDEST PUSH2 0x6BA JUMP JUMPDEST STOP JUMPDEST PUSH2 0x32F PUSH2 0x6F4 JUMP JUMPDEST PUSH1 0x40 MLOAD PUSH2 0x33C SWAP2 SWAP1 PUSH2 0xC22 JUMP JUMPDEST PUSH1 0x40 MLOAD DUP1 SWAP2 SUB SWAP1 RETURN JUMPDEST PUSH2 0x35F PUSH1 0x4 DUP1 CALLDATASIZE SUB DUP2 ADD SWAP1 PUSH2 0x35A SWAP2 SWAP1 PUSH2 0xC3B JUMP JUMPDEST PUSH2 0x718 JUMP JUMPDEST STOP JUMPDEST PUSH2 0x37B PUSH1 0x4 DUP1 CALLDATASIZE SUB DUP2 ADD SWAP1 PUSH2 0x376 SWAP2 SWAP1 PUSH2 0xB8A JUMP JUMPDEST PUSH2 0x73A JUMP JUMPDEST STOP JUMPDEST PUSH2 0x385 PUSH2 0x774 JUMP JUMPDEST PUSH1 0x40 MLOAD PUSH2 0x392 SWAP2 SWAP1 PUSH2 0xC22 JUMP JUMPDEST PUSH1 0x40 MLOAD DUP1 SWAP2 SUB SWAP1 RETURN JUMPDEST PUSH2 0x3B5 PUSH1 0x4 DUP1 CALLDATASIZE SUB DUP2 ADD SWAP1 PUSH2 0x3B0 SWAP2 SWAP1 PUSH2 0xB8A JUMP JUMPDEST PUSH2 0x798 JUMP JUMPDEST STOP JUMPDEST PUSH0 PUSH32 0x7965DB0B00000000000000000000000000000000000000000000000000000000 PUSH28 0xFFFFFFFFFFFFFFFFFFFFFFFFFFFFFFFFFFFFFFFFFFFFFFFFFFFFFFFF NOT AND DUP3 PUSH28 0xFFFFFFFFFFFFFFFFFFFFFFFFFFFFFFFFFFFFFFFFFFFFFFFFFFFFFFFF NOT AND EQ DUP1 PUSH2 0x429 JUMPI POP PUSH2 0x428 DUP3 PUSH2 0x7D2 JUMP JUMPDEST JUMPDEST SWAP1 POP SWAP2 SWAP1 POP JUMP JUMPDEST PUSH0 DUP1 SHL PUSH2 0x43C DUP2 PUSH2 0x83B JUMP JUMPDEST PUSH2 0x466 PUSH32 0x3C11D16CBAFFD01DF69CE1C404F6340EE057498F5F00246190EA54220576A848 DUP4 PUSH2 0x718 JUMP JUMPDEST POP POP JUMP JUMPDEST PUSH0 DUP1 SHL PUSH2 0x476 DUP2 PUSH2 0x83B JUMP JUMPDEST PUSH2 0x4A0 PUSH32 0x3C11D16CBAFFD01DF69CE1C404F6340EE057498F5F00246190EA54220576A848 DUP4 PUSH2 0x51E JUMP JUMPDEST POP POP JUMP JUMPDEST PUSH0 DUP1 PUSH0 DUP4 DUP2 MSTORE PUSH1 0x20 ADD SWAP1 DUP2 MSTORE PUSH1 0x20 ADD PUSH0 KECCAK256 PUSH1 0x1 ADD SLOAD SWAP1 POP SWAP2 SWAP1 POP JUMP JUMPDEST PUSH0 DUP1 SHL PUSH2 0x4CC DUP2 PUSH2 0x83B JUMP JUMPDEST PUSH2 0x4F6 PUSH32 0x9F2DF0FED2C77648DE5860A4CC508CD0818C85B8B8A1AB4CEEEF8D981C8956A6 DUP4 PUSH2 0x51E JUMP JUMPDEST POP POP JUMP JUMPDEST PUSH32 0x3C11D16CBAFFD01DF69CE1C404F6340EE057498F5F00246190EA54220576A848 DUP2 JUMP JUMPDEST PUSH2 0x527 DUP3 PUSH2 0x4A4 JUMP JUMPDEST PUSH2 0x530 DUP2 PUSH2 0x83B JUMP JUMPDEST PUSH2 0x53A DUP4 DUP4 PUSH2 0x84F JUMP JUMPDEST POP POP POP POP JUMP JUMPDEST PUSH2 0x548 PUSH2 0x938 JUMP JUMPDEST PUSH20 0xFFFFFFFFFFFFFFFFFFFFFFFFFFFFFFFFFFFFFFFF AND DUP2 PUSH20 0xFFFFFFFFFFFFFFFFFFFFFFFFFFFFFFFFFFFFFFFF AND EQ PUSH2 0x5AC JUMPI PUSH1 0x40 MLOAD PUSH32 0x6697B23200000000000000000000000000000000000000000000000000000000 DUP2 MSTORE PUSH1 0x4 ADD PUSH1 0x40 MLOAD DUP1 SWAP2 SUB SWAP1 REVERT JUMPDEST PUSH2 0x5B6 DUP3 DUP3 PUSH2 0x93F JUMP JUMPDEST POP POP POP JUMP JUMPDEST PUSH0 PUSH2 0x5E6 PUSH32 0x3C11D16CBAFFD01DF69CE1C404F6340EE057498F5F00246190EA54220576A848 DUP4 PUSH2 0x61F JUMP JUMPDEST SWAP1 POP SWAP2 SWAP1 POP JUMP JUMPDEST PUSH0 PUSH2 0x618 PUSH32 0x97667070C54EF182B0F5858B034BEAC1B6F3089AA2D3188BB1E8929F4FA9B929 DUP4 PUSH2 0x61F JUMP JUMPDEST SWAP1 POP SWAP2 SWAP1 POP JUMP JUMPDEST PUSH0 DUP1 PUSH0 DUP5 DUP2 MSTORE PUSH1 0x20 ADD SWAP1 DUP2 MSTORE PUSH1 0x20 ADD PUSH0 KECCAK256 PUSH0 ADD PUSH0 DUP4 PUSH20 0xFFFFFFFFFFFFFFFFFFFFFFFFFFFFFFFFFFFFFFFF AND PUSH20 0xFFFFFFFFFFFFFFFFFFFFFFFFFFFFFFFFFFFFFFFF AND DUP2 MSTORE PUSH1 0x20 ADD SWAP1 DUP2 MSTORE PUSH1 0x20 ADD PUSH0 KECCAK256 PUSH0 SWAP1 SLOAD SWAP1 PUSH2 0x100 EXP SWAP1 DIV PUSH1 0xFF AND SWAP1 POP SWAP3 SWAP2 POP POP JUMP JUMPDEST PUSH0 DUP1 SHL DUP2 JUMP JUMPDEST PUSH0 PUSH2 0x6B3 PUSH32 0x9F2DF0FED2C77648DE5860A4CC508CD0818C85B8B8A1AB4CEEEF8D981C8956A6 DUP4 PUSH2 0x61F JUMP JUMPDEST SWAP1 POP SWAP2 SWAP1 POP JUMP JUMPDEST PUSH0 DUP1 SHL PUSH2 0x6C6 DUP2 PUSH2 0x83B JUMP JUMPDEST PUSH2 0x6F0 PUSH32 0x9F2DF0FED2C77648DE5860A4CC508CD0818C85B8B8A1AB4CEEEF8D981C8956A6 DUP4 PUSH2 0x718 JUMP JUMPDEST POP POP JUMP JUMPDEST PUSH32 0x9F2DF0FED2C77648DE5860A4CC508CD0818C85B8B8A1AB4CEEEF8D981C8956A6 DUP2 JUMP JUMPDEST PUSH2 0x721 DUP3 PUSH2 0x4A4 JUMP JUMPDEST PUSH2 0x72A DUP2 PUSH2 0x83B JUMP JUMPDEST PUSH2 0x734 DUP4 DUP4 PUSH2 0x93F JUMP JUMPDEST POP POP POP POP JUMP JUMPDEST PUSH0 DUP1 SHL PUSH2 0x746 DUP2 PUSH2 0x83B JUMP JUMPDEST PUSH2 0x770 PUSH32 0x97667070C54EF182B0F5858B034BEAC1B6F3089AA2D3188BB1E8929F4FA9B929 DUP4 PUSH2 0x51E JUMP JUMPDEST POP POP JUMP JUMPDEST PUSH32 0x97667070C54EF182B0F5858B034BEAC1B6F3089AA2D3188BB1E8929F4FA9B929 DUP2 JUMP JUMPDEST PUSH0 DUP1 SHL PUSH2 0x7A4 DUP2 PUSH2 0x83B JUMP JUMPDEST PUSH2 0x7CE PUSH32 0x97667070C54EF182B0F5858B034BEAC1B6F3089AA2D3188BB1E8929F4FA9B929 DUP4 PUSH2 0x718 JUMP JUMPDEST POP POP JUMP JUMPDEST PUSH0 PUSH32 0x1FFC9A700000000000000000000000000000000000000000000000000000000 PUSH28 0xFFFFFFFFFFFFFFFFFFFFFFFFFFFFFFFFFFFFFFFFFFFFFFFFFFFFFFFF NOT AND DUP3 PUSH28 0xFFFFFFFFFFFFFFFFFFFFFFFFFFFFFFFFFFFFFFFFFFFFFFFFFFFFFFFF NOT AND EQ SWAP1 POP SWAP2 SWAP1 POP JUMP JUMPDEST PUSH2 0x84C DUP2 PUSH2 0x847 PUSH2 0x938 JUMP JUMPDEST PUSH2 0xA28 JUMP JUMPDEST POP JUMP JUMPDEST PUSH0 PUSH2 0x85A DUP4 DUP4 PUSH2 0x61F JUMP JUMPDEST PUSH2 0x92E JUMPI PUSH1 0x1 PUSH0 DUP1 DUP6 DUP2 MSTORE PUSH1 0x20 ADD SWAP1 DUP2 MSTORE PUSH1 0x20 ADD PUSH0 KECCAK256 PUSH0 ADD PUSH0 DUP5 PUSH20 0xFFFFFFFFFFFFFFFFFFFFFFFFFFFFFFFFFFFFFFFF AND PUSH20 0xFFFFFFFFFFFFFFFFFFFFFFFFFFFFFFFFFFFFFFFF AND DUP2 MSTORE PUSH1 0x20 ADD SWAP1 DUP2 MSTORE PUSH1 0x20 ADD PUSH0 KECCAK256 PUSH0 PUSH2 0x100 EXP DUP2 SLOAD DUP2 PUSH1 0xFF MUL NOT AND SWAP1 DUP4 ISZERO ISZERO MUL OR SWAP1 SSTORE POP PUSH2 0x8CB PUSH2 0x938 JUMP JUMPDEST PUSH20 0xFFFFFFFFFFFFFFFFFFFFFFFFFFFFFFFFFFFFFFFF AND DUP3 PUSH20 0xFFFFFFFFFFFFFFFFFFFFFFFFFFFFFFFFFFFFFFFF AND DUP5 PUSH32 0x2F8788117E7EFF1D82E926EC794901D17C78024A50270940304540A733656F0D PUSH1 0x40 MLOAD PUSH1 0x40 MLOAD DUP1 SWAP2 SUB SWAP1 LOG4 PUSH1 0x1 SWAP1 POP PUSH2 0x932 JUMP JUMPDEST PUSH0 SWAP1 POP JUMPDEST SWAP3 SWAP2 POP POP JUMP JUMPDEST PUSH0 CALLER SWAP1 POP SWAP1 JUMP JUMPDEST PUSH0 PUSH2 0x94A DUP4 DUP4 PUSH2 0x61F JUMP JUMPDEST ISZERO PUSH2 0xA1E JUMPI PUSH0 DUP1 PUSH0 DUP6 DUP2 MSTORE PUSH1 0x20 ADD SWAP1 DUP2 MSTORE PUSH1 0x20 ADD PUSH0 KECCAK256 PUSH0 ADD PUSH0 DUP5 PUSH20 0xFFFFFFFFFFFFFFFFFFFFFFFFFFFFFFFFFFFFFFFF AND PUSH20 0xFFFFFFFFFFFFFFFFFFFFFFFFFFFFFFFFFFFFFFFF AND DUP2 MSTORE PUSH1 0x20 ADD SWAP1 DUP2 MSTORE PUSH1 0x20 ADD PUSH0 KECCAK256 PUSH0 PUSH2 0x100 EXP DUP2 SLOAD DUP2 PUSH1 0xFF MUL NOT AND SWAP1 DUP4 ISZERO ISZERO MUL OR SWAP1 SSTORE POP PUSH2 0x9BB PUSH2 0x938 JUMP JUMPDEST PUSH20 0xFFFFFFFFFFFFFFFFFFFFFFFFFFFFFFFFFFFFFFFF AND DUP3 PUSH20 0xFFFFFFFFFFFFFFFFFFFFFFFFFFFFFFFFFFFFFFFF AND DUP5 PUSH32 0xF6391F5C32D9C69D2A47EA670B442974B53935D1EDC7FD64EB21E047A839171B PUSH1 0x40 MLOAD PUSH1 0x40 MLOAD DUP1 SWAP2 SUB SWAP1 LOG4 PUSH1 0x1 SWAP1 POP PUSH2 0xA22 JUMP JUMPDEST PUSH0 SWAP1 POP JUMPDEST SWAP3 SWAP2 POP POP JUMP JUMPDEST PUSH2 0xA32 DUP3 DUP3 PUSH2 0x61F JUMP JUMPDEST PUSH2 0xA75 JUMPI DUP1 DUP3 PUSH1 0x40 MLOAD PUSH32 0xE2517D3F00000000000000000000000000000000000000000000000000000000 DUP2 MSTORE PUSH1 0x4 ADD PUSH2 0xA6C SWAP3 SWAP2 SWAP1 PUSH2 0xC88 JUMP JUMPDEST PUSH1 0x40 MLOAD DUP1 SWAP2 SUB SWAP1 REVERT JUMPDEST POP POP JUMP JUMPDEST PUSH0 DUP1 REVERT JUMPDEST PUSH0 PUSH32 0xFFFFFFFF00000000000000000000000000000000000000000000000000000000 DUP3 AND SWAP1 POP SWAP2 SWAP1 POP JUMP JUMPDEST PUSH2 0xAB1 DUP2 PUSH2 0xA7D JUMP JUMPDEST DUP2 EQ PUSH2 0xABB JUMPI PUSH0 DUP1 REVERT JUMPDEST POP JUMP JUMPDEST PUSH0 DUP2 CALLDATALOAD SWAP1 POP PUSH2 0xACC DUP2 PUSH2 0xAA8 JUMP JUMPDEST SWAP3 SWAP2 POP POP JUMP JUMPDEST PUSH0 PUSH1 0x20 DUP3 DUP5 SUB SLT ISZERO PUSH2 0xAE7 JUMPI PUSH2 0xAE6 PUSH2 0xA79 JUMP JUMPDEST JUMPDEST PUSH0 PUSH2 0xAF4 DUP5 DUP3 DUP6 ADD PUSH2 0xABE JUMP JUMPDEST SWAP2 POP POP SWAP3 SWAP2 POP POP JUMP JUMPDEST PUSH0 DUP2 ISZERO ISZERO SWAP1 POP SWAP2 SWAP1 POP JUMP JUMPDEST PUSH2 0xB11 DUP2 PUSH2 0xAFD JUMP JUMPDEST DUP3 MSTORE POP POP JUMP JUMPDEST PUSH0 PUSH1 0x20 DUP3 ADD SWAP1 POP PUSH2 0xB2A PUSH0 DUP4 ADD DUP5 PUSH2 0xB08 JUMP JUMPDEST SWAP3 SWAP2 POP POP JUMP JUMPDEST PUSH0 PUSH20 0xFFFFFFFFFFFFFFFFFFFFFFFFFFFFFFFFFFFFFFFF DUP3 AND SWAP1 POP SWAP2 SWAP1 POP JUMP JUMPDEST PUSH0 PUSH2 0xB59 DUP3 PUSH2 0xB30 JUMP JUMPDEST SWAP1 POP SWAP2 SWAP1 POP JUMP JUMPDEST PUSH2 0xB69 DUP2 PUSH2 0xB4F JUMP JUMPDEST DUP2 EQ PUSH2 0xB73 JUMPI PUSH0 DUP1 REVERT JUMPDEST POP JUMP JUMPDEST PUSH0 DUP2 CALLDATALOAD SWAP1 POP PUSH2 0xB84 DUP2 PUSH2 0xB60 JUMP JUMPDEST SWAP3 SWAP2 POP POP JUMP JUMPDEST PUSH0 PUSH1 0x20 DUP3 DUP5 SUB SLT ISZERO PUSH2 0xB9F JUMPI PUSH2 0xB9E PUSH2 0xA79 JUMP JUMPDEST JUMPDEST PUSH0 PUSH2 0xBAC DUP5 DUP3 DUP6 ADD PUSH2 0xB76 JUMP JUMPDEST SWAP2 POP POP SWAP3 SWAP2 POP POP JUMP JUMPDEST PUSH0 DUP2 SWAP1 POP SWAP2 SWAP1 POP JUMP JUMPDEST PUSH2 0xBC7 DUP2 PUSH2 0xBB5 JUMP JUMPDEST DUP2 EQ PUSH2 0xBD1 JUMPI PUSH0 DUP1 REVERT JUMPDEST POP JUMP JUMPDEST PUSH0 DUP2 CALLDATALOAD SWAP1 POP PUSH2 0xBE2 DUP2 PUSH2 0xBBE JUMP JUMPDEST SWAP3 SWAP2 POP POP JUMP JUMPDEST PUSH0 PUSH1 0x20 DUP3 DUP5 SUB SLT ISZERO PUSH2 0xBFD JUMPI PUSH2 0xBFC PUSH2 0xA79 JUMP JUMPDEST JUMPDEST PUSH0 PUSH2 0xC0A DUP5 DUP3 DUP6 ADD PUSH2 0xBD4 JUMP JUMPDEST SWAP2 POP POP SWAP3 SWAP2 POP POP JUMP JUMPDEST PUSH2 0xC1C DUP2 PUSH2 0xBB5 JUMP JUMPDEST DUP3 MSTORE POP POP JUMP JUMPDEST PUSH0 PUSH1 0x20 DUP3 ADD SWAP1 POP PUSH2 0xC35 PUSH0 DUP4 ADD DUP5 PUSH2 0xC13 JUMP JUMPDEST SWAP3 SWAP2 POP POP JUMP JUMPDEST PUSH0 DUP1 PUSH1 0x40 DUP4 DUP6 SUB SLT ISZERO PUSH2 0xC51 JUMPI PUSH2 0xC50 PUSH2 0xA79 JUMP JUMPDEST JUMPDEST PUSH0 PUSH2 0xC5E DUP6 DUP3 DUP7 ADD PUSH2 0xBD4 JUMP JUMPDEST SWAP3 POP POP PUSH1 0x20 PUSH2 0xC6F DUP6 DUP3 DUP7 ADD PUSH2 0xB76 JUMP JUMPDEST SWAP2 POP POP SWAP3 POP SWAP3 SWAP1 POP JUMP JUMPDEST PUSH2 0xC82 DUP2 PUSH2 0xB4F JUMP JUMPDEST DUP3 MSTORE POP POP JUMP JUMPDEST PUSH0 PUSH1 0x40 DUP3 ADD SWAP1 POP PUSH2 0xC9B PUSH0 DUP4 ADD DUP6 PUSH2 0xC79 JUMP JUMPDEST PUSH2 0xCA8 PUSH1 0x20 DUP4 ADD DUP5 PUSH2 0xC13 JUMP JUMPDEST SWAP4 SWAP3 POP POP POP JUMP INVALID LOG2 PUSH5 0x6970667358 0x22 SLT KECCAK256 0xAA 0xAD EXTCODEHASH 0x4D 0xF7 PUSH7 0x7F341036437386 0xD4 0xE1 NUMBER 0xC7 0xFC DUP11 PUSH9 0xE48CA82C07BDB48A7A 0xC5 PUSH16 0xE764736F6C6343000819003300000000 "
		},
		"gasEstimates": {
			"creation": {
				"codeDepositCost": "660200",
				"executionCost": "infinite",
				"totalCost": "infinite"
			},
			"external": {
				"BURNER_ROLE()": "370",
				"DEFAULT_ADMIN_ROLE()": "397",
				"MINTER_ROLE()": "347",
				"OPERATOR_ROLE()": "413",
				"getRoleAdmin(bytes32)": "infinite",
				"grantBurner(address)": "infinite",
				"grantMinter(address)": "infinite",
				"grantOperator(address)": "infinite",
				"grantRole(bytes32,address)": "infinite",
				"hasRole(bytes32,address)": "3167",
				"isBurner(address)": "3109",
				"isMinter(address)": "3087",
				"isOperator(address)": "3021",
				"renounceRole(bytes32,address)": "infinite",
				"revokeBurner(address)": "infinite",
				"revokeMinter(address)": "infinite",
				"revokeOperator(address)": "infinite",
				"revokeRole(bytes32,address)": "infinite",
				"supportsInterface(bytes4)": "741"
			}
		},
		"methodIdentifiers": {
			"BURNER_ROLE()": "282c51f3",
			"DEFAULT_ADMIN_ROLE()": "a217fddf",
			"MINTER_ROLE()": "d5391393",
			"OPERATOR_ROLE()": "f5b541a6",
			"getRoleAdmin(bytes32)": "248a9ca3",
			"grantBurner(address)": "10511f96",
			"grantMinter(address)": "261707fa",
			"grantOperator(address)": "e348da13",
			"grantRole(bytes32,address)": "2f2ff15d",
			"hasRole(bytes32,address)": "91d14854",
			"isBurner(address)": "4334614a",
			"isMinter(address)": "aa271e1a",
			"isOperator(address)": "6d70f7ae",
			"renounceRole(bytes32,address)": "36568abe",
			"revokeBurner(address)": "0900cc33",
			"revokeMinter(address)": "cfbd4885",
			"revokeOperator(address)": "fad8b32a",
			"revokeRole(bytes32,address)": "d547741f",
			"supportsInterface(bytes4)": "01ffc9a7"
		}
	},
	"abi": [
		{
			"inputs": [
				{
					"internalType": "address",
					"name": "admin",
					"type": "address"
				}
			],
			"stateMutability": "nonpayable",
			"type": "constructor"
		},
		{
			"inputs": [],
			"name": "AccessControlBadConfirmation",
			"type": "error"
		},
		{
			"inputs": [
				{
					"internalType": "address",
					"name": "account",
					"type": "address"
				},
				{
					"internalType": "bytes32",
					"name": "neededRole",
					"type": "bytes32"
				}
			],
			"name": "AccessControlUnauthorizedAccount",
			"type": "error"
		},
		{
			"anonymous": false,
			"inputs": [
				{
					"indexed": true,
					"internalType": "bytes32",
					"name": "role",
					"type": "bytes32"
				},
				{
					"indexed": true,
					"internalType": "bytes32",
					"name": "previousAdminRole",
					"type": "bytes32"
				},
				{
					"indexed": true,
					"internalType": "bytes32",
					"name": "newAdminRole",
					"type": "bytes32"
				}
			],
			"name": "RoleAdminChanged",
			"type": "event"
		},
		{
			"anonymous": false,
			"inputs": [
				{
					"indexed": true,
					"internalType": "bytes32",
					"name": "role",
					"type": "bytes32"
				},
				{
					"indexed": true,
					"internalType": "address",
					"name": "account",
					"type": "address"
				},
				{
					"indexed": true,
					"internalType": "address",
					"name": "sender",
					"type": "address"
				}
			],
			"name": "RoleGranted",
			"type": "event"
		},
		{
			"anonymous": false,
			"inputs": [
				{
					"indexed": true,
					"internalType": "bytes32",
					"name": "role",
					"type": "bytes32"
				},
				{
					"indexed": true,
					"internalType": "address",
					"name": "account",
					"type": "address"
				},
				{
					"indexed": true,
					"internalType": "address",
					"name": "sender",
					"type": "address"
				}
			],
			"name": "RoleRevoked",
			"type": "event"
		},
		{
			"inputs": [],
			"name": "BURNER_ROLE",
			"outputs": [
				{
					"internalType": "bytes32",
					"name": "",
					"type": "bytes32"
				}
			],
			"stateMutability": "view",
			"type": "function"
		},
		{
			"inputs": [],
			"name": "DEFAULT_ADMIN_ROLE",
			"outputs": [
				{
					"internalType": "bytes32",
					"name": "",
					"type": "bytes32"
				}
			],
			"stateMutability": "view",
			"type": "function"
		},
		{
			"inputs": [],
			"name": "MINTER_ROLE",
			"outputs": [
				{
					"internalType": "bytes32",
					"name": "",
					"type": "bytes32"
				}
			],
			"stateMutability": "view",
			"type": "function"
		},
		{
			"inputs": [],
			"name": "OPERATOR_ROLE",
			"outputs": [
				{
					"internalType": "bytes32",
					"name": "",
					"type": "bytes32"
				}
			],
			"stateMutability": "view",
			"type": "function"
		},
		{
			"inputs": [
				{
					"internalType": "bytes32",
					"name": "role",
					"type": "bytes32"
				}
			],
			"name": "getRoleAdmin",
			"outputs": [
				{
					"internalType": "bytes32",
					"name": "",
					"type": "bytes32"
				}
			],
			"stateMutability": "view",
			"type": "function"
		},
		{
			"inputs": [
				{
					"internalType": "address",
					"name": "account",
					"type": "address"
				}
			],
			"name": "grantBurner",
			"outputs": [],
			"stateMutability": "nonpayable",
			"type": "function"
		},
		{
			"inputs": [
				{
					"internalType": "address",
					"name": "account",
					"type": "address"
				}
			],
			"name": "grantMinter",
			"outputs": [],
			"stateMutability": "nonpayable",
			"type": "function"
		},
		{
			"inputs": [
				{
					"internalType": "address",
					"name": "account",
					"type": "address"
				}
			],
			"name": "grantOperator",
			"outputs": [],
			"stateMutability": "nonpayable",
			"type": "function"
		},
		{
			"inputs": [
				{
					"internalType": "bytes32",
					"name": "role",
					"type": "bytes32"
				},
				{
					"internalType": "address",
					"name": "account",
					"type": "address"
				}
			],
			"name": "grantRole",
			"outputs": [],
			"stateMutability": "nonpayable",
			"type": "function"
		},
		{
			"inputs": [
				{
					"internalType": "bytes32",
					"name": "role",
					"type": "bytes32"
				},
				{
					"internalType": "address",
					"name": "account",
					"type": "address"
				}
			],
			"name": "hasRole",
			"outputs": [
				{
					"internalType": "bool",
					"name": "",
					"type": "bool"
				}
			],
			"stateMutability": "view",
			"type": "function"
		},
		{
			"inputs": [
				{
					"internalType": "address",
					"name": "account",
					"type": "address"
				}
			],
			"name": "isBurner",
			"outputs": [
				{
					"internalType": "bool",
					"name": "",
					"type": "bool"
				}
			],
			"stateMutability": "view",
			"type": "function"
		},
		{
			"inputs": [
				{
					"internalType": "address",
					"name": "account",
					"type": "address"
				}
			],
			"name": "isMinter",
			"outputs": [
				{
					"internalType": "bool",
					"name": "",
					"type": "bool"
				}
			],
			"stateMutability": "view",
			"type": "function"
		},
		{
			"inputs": [
				{
					"internalType": "address",
					"name": "account",
					"type": "address"
				}
			],
			"name": "isOperator",
			"outputs": [
				{
					"internalType": "bool",
					"name": "",
					"type": "bool"
				}
			],
			"stateMutability": "view",
			"type": "function"
		},
		{
			"inputs": [
				{
					"internalType": "bytes32",
					"name": "role",
					"type": "bytes32"
				},
				{
					"internalType": "address",
					"name": "callerConfirmation",
					"type": "address"
				}
			],
			"name": "renounceRole",
			"outputs": [],
			"stateMutability": "nonpayable",
			"type": "function"
		},
		{
			"inputs": [
				{
					"internalType": "address",
					"name": "account",
					"type": "address"
				}
			],
			"name": "revokeBurner",
			"outputs": [],
			"stateMutability": "nonpayable",
			"type": "function"
		},
		{
			"inputs": [
				{
					"internalType": "address",
					"name": "account",
					"type": "address"
				}
			],
			"name": "revokeMinter",
			"outputs": [],
			"stateMutability": "nonpayable",
			"type": "function"
		},
		{
			"inputs": [
				{
					"internalType": "address",
					"name": "account",
					"type": "address"
				}
			],
			"name": "revokeOperator",
			"outputs": [],
			"stateMutability": "nonpayable",
			"type": "function"
		},
		{
			"inputs": [
				{
					"internalType": "bytes32",
					"name": "role",
					"type": "bytes32"
				},
				{
					"internalType": "address",
					"name": "account",
					"type": "address"
				}
			],
			"name": "revokeRole",
			"outputs": [],
			"stateMutability": "nonpayable",
			"type": "function"
		},
		{
			"inputs": [
				{
					"internalType": "bytes4",
					"name": "interfaceId",
					"type": "bytes4"
				}
			],
			"name": "supportsInterface",
			"outputs": [
				{
					"internalType": "bool",
					"name": "",
					"type": "bool"
				}
			],
			"stateMutability": "view",
			"type": "function"
		}
	]
}